:100000000C94DB000C9403010C9403010C94030189
:100010000C9403010C9403010C9403010C94030150
:100020000C9403010C9403010C9403010C94030140
:100030000C9403010C9403010C9403010C94030130
:100040000C9471060C9403010C94E1060C94BB060D
:100050000C9403010C9403010C9403010C94030110
:100060000C9403010C94030100407A10F35A00A091
:10007000724E18090010A5D4E80000E87648170071
:1000800000E40B54020000CA9A3B000000E1F505B1
:10009000000080969800000040420F000000A086FB
:1000A00001000000102700000000E803000000002D
:1000B0006400000000000A000000000001000000D1
:1000C00000002C76D888DC674F0823DFC1DFAE59EB
:1000D000E1B1B796E5E3E453C63AE651997696E87E
:1000E000E6C28426EB898C9B62ED407C6FFCEFBC02
:1000F0009C9F40F2BAA56FA5F490055A2AF75C932D
:100100006B6CF9676DC11BFCE0E40D47FEF520E662
:10011000B500D0ED902E0300943577050080841E45
:10012000080000204E0A000000C80C333333330FA0
:10013000986E12831141EF8D2114893BE65516CF3D
:10014000FEE6DB18D1844B381BF77C1D901DA4BB49
:10015000E424203284725E228100C9F124ECA1E5FE
:100160003D2700000000240027002A0000000000B6
:10017000250028002B0004040404040404040202E3
:100180000202020203030303030301020408102016
:100190004080010204081020010204081020000021
:1001A0000008000201000003040700000000000036
:1001B000000013078E0B11241FBECFEFD8E0DEBF67
:1001C000CDBF23E0A2E9B2E001C01D92A635B2077F
:1001D000E1F712E0A0E0B1E0ECE8F5E202C0059042
:1001E0000D92A239B107D9F710E0CAEDD0E004C0F2
:1001F0002197FE010E94C110C93DD107C9F70E9495
:1002000087070C94B9120C940000E7EAF1E02491FE
:10021000E3E9F1E09491EFE7F1E0E491EE23C9F036
:10022000222339F0233001F1A8F4213019F12230D2
:1002300029F1F0E0EE0FFF1FE459FE4FA591B491B4
:100240002FB7F894EC91811126C090959E239C9332
:100250002FBF08952730A9F02830C9F0243049F77E
:10026000209180002F7D03C0209180002F77209364
:100270008000DFCF24B52F7724BDDBCF24B52F7DC1
:10028000FBCF2091B0002F772093B000D2CF2091E8
:10029000B0002F7DF9CF9E2BDACF8F929F92AF9235
:1002A000BF92CF92DF92EF92FF9292EF980F8E3033
:1002B00008F0892F877030E020E0C12CD12C760126
:1002C000B0E0A0E040E050E0BA01E091000190E42D
:1002D000E99FF0011124E82BE0937C0090917A00D3
:1002E000906490937A0090917A0096FDFCCF809074
:1002F000780090907900092C000CAA08BB08480DE2
:10030000591D6A1D7B1D1196A031B105F1F64E5F96
:100310005F4F6F4F7F4F92E0769567955795479562
:100320009A95D1F766277727C40ED51EE61EF71ECD
:100330002F5F3F4F2031310519F6C701B6010E94EA
:10034000F10D20E030E040E85DE30E94520EFF90A6
:10035000EF90DF90CF90BF90AF909F908F900895D7
:10036000CF93DF9390E0FC01E657FE4F24918A582B
:100370009E4FFC0184918823D1F090E0880F991F53
:10038000FC01EE59FE4FA591B491FC01E459FE4FDA
:10039000C591D49161110EC09FB7F8948C91E22F52
:1003A000E0958E238C932881E223E8839FBFDF9121
:1003B000CF9108958FB7F894EC91E22BEC938FBF17
:1003C000F6CFCF93DF93EC0161E089E00E94B001AA
:1003D000209729F480E0DF91CF910C940501CF3F65
:1003E000D10511F481E0F7CFE7EAF1E0E491E330E1
:1003F00029F140F4E130B1F0E230D9F0C038D10554
:100400008CF7E8CFE73021F1E83051F1E430B1F773
:1004100080918000806280938000D0938B00C09395
:100420008A0004C084B5806884BDC7BDDF91CF91C8
:10043000089584B5806284BDC8BDF8CF80918000E6
:10044000806880938000D0938900C0938800EECFAD
:100450008091B00080688093B000C093B300E6CF75
:100460008091B00080628093B000C093B400DECF72
:100470003FB7F8948091A7029091A802A091A90299
:10048000B091AA0226B5A89B05C02F3F19F001968E
:10049000A11DB11D3FBFBA2FA92F982F8827BC01DE
:1004A000CD01620F711D811D911D42E0660F771F06
:1004B000881F991F4A95D1F708958F929F92AF9206
:1004C000BF92CF92DF92EF92FF926B017C010E946C
:1004D00038024B015C01C114D104E104F104B9F00C
:1004E0000E943802681979098A099B09683E73409D
:1004F0008105910580F321E0C21AD108E108F108D5
:1005000088EE880E83E0981EA11CB11CE4CFFF90FA
:10051000EF90DF90CF90BF90AF909F908F90089515
:10052000AF92BF92CF92DF92EF92FF920F931F9301
:10053000CF93DF936C017B018B01040F151FEB013F
:100540005E01AE18BF08C017D10759F06991D601F6
:10055000ED91FC910190F081E02DC6010995892B68
:1005600079F7C501DF91CF911F910F91FF90EF9027
:10057000DF90CF90BF90AF900895FC01538D448DD4
:10058000252F30E0842F90E0821B930B541710F03E
:10059000CF96089501970895FC01918D828D98174B
:1005A00061F0A28DAE0FBF2FB11D5D968C91928D23
:1005B0009F5F9F73928F90E008958FEF9FEF089554
:1005C000FC01918D828D981731F0828DE80FF11D1D
:1005D000858D90E008958FEF9FEF08952FB7F894E1
:1005E0008091AB029091AC02A091AD02B091AE02AD
:1005F0002FBF8093B7029093B802A093B902B09333
:10060000BA028FEA92E00E94E00297FF26C02FB75D
:10061000F8948091AB029091AC02A091AD02B091A0
:10062000AE022FBF4091B7025091B8026091B9025B
:100630007091BA02841B950BA60BB70B4091B302C5
:100640005091B4026091B5027091B602841795077B
:10065000A607B707B0F28FEF9FEF0895CF92DF9212
:10066000EF92FF92CF930E94EE02FC0197FD4EC0E5
:100670008D32910521F0C0970A9708F040C0C12C37
:10068000D12C7601C0E0E130F105D1F0ED32F10579
:10069000D9F1CF01C0970A9798F4AAE0B0E0A7017A
:1006A00096010E94100F6F01FF0FEE08FF08C60EA3
:1006B000D71EE81EF91E80E3C81AD108E108F10828
:1006C0008FEA92E00E94CC020E94EE02FC01C097E9
:1006D0000A97C8F2E130F105B1F2CC2341F0F09471
:1006E000E094D094C094C11CD11CE11CF11CC70142
:1006F000B601CF91FF90EF90DF90CF9008958FEAF1
:1007000092E00E94CC02AFCFC1E0DACFC12CD12C55
:100710007601EDCFFC01918D228D892F90E0805CD8
:100720009F4F821B91098F73992708958FEA92E05A
:100730000E948A0321E0892B09F420E0822F08958A
:1007400080E090E0892B29F00E94960381110C949F
:1007500000000895FC01A48DA80FB92FB11DA35A64
:10076000BF4F2C91848D90E001968F739927848FD1
:10077000A689B7892C93A089B1898C9183708064F4
:100780008C93938D848D981306C00288F389E02D95
:1007900080818F7D80830895EF92FF920F931F9346
:1007A000CF93DF93EC0181E0888F9B8D8C8D981324
:1007B0001AC0E889F989808185FF15C09FB7F89430
:1007C000EE89FF896083E889F9898081837080647C
:1007D00080839FBF81E090E0DF91CF911F910F91C7
:1007E000FF90EF900895F62E0B8D10E00F5F1F4FD6
:1007F0000F731127E02E8C8D8E110CC00FB607FCE5
:10080000FACFE889F989808185FFF5CFCE010E9472
:10081000AA03F1CFEB8DEC0FFD2FF11DE35AFF4F33
:10082000F0829FB7F8940B8FEA89FB898081806200
:10083000CFCFCF93DF93EC01888D8823B9F0AA89BD
:10084000BB89E889F9898C9185FD03C0808186FD8B
:100850000DC00FB607FCF7CF8C9185FFF2CF8081DA
:1008600085FFEDCFCE010E94AA03E9CFDF91CF91A2
:100870000895FC0101900020E9F73197AF01481B72
:10088000590BBC018FEA92E00C9490028F929F92D8
:10089000AF92BF920F931F93CF93DF93CDB7DEB785
:1008A000A1970FB6F894DEBF0FBECDBF19A242309C
:1008B00008F44AE08E010F5D1F4F842E912CB12C5D
:1008C000A12CA50194010E948010E62FB901CA0154
:1008D000EA30F4F4E05DD801EE938D01232B242B54
:1008E000252B79F790E080E0109719F0CD010E9458
:1008F0003904A1960FB6F894DEBF0FBECDBFDF91CD
:10090000CF911F910F91BF90AF909F908F900895BE
:10091000E95CE1CFCF92DF92EF92FF92CF93DF932A
:100920006B017C016DE28FEA92E00E94CC03EC0146
:1009300066277727CB016C197D098E099F094AE04C
:100940000E9446048C0F9D1FDF91CF91FF90EF9086
:10095000DF90CF900895CF93DF930E943904EC018C
:1009600089E191E00E9439048C0F9D1FDF91CF91A6
:1009700008954F925F926F927F928F929F92AF9263
:10098000BF92CF92DF92EF92FF920F931F93CF937C
:100990006B017C01742EAC019B010E947B108823AB
:1009A00099F08CE191E0CF911F910F91FF90EF9022
:1009B000DF90CF90BF90AF909F908F907F906F907F
:1009C0005F904F900C94390446015701E894B7F8B2
:1009D0002FEF3FEF4FE75FE7C501B4010E947B10A7
:1009E00081110DC02FEF3FEF4FE75FE7C501B40165
:1009F0000E94EC0D18161CF480E291E0D4CF2FEF8A
:100A00003FEF4FE75FE4C701B6010E94761018166A
:100A10001CF484E291E0C7CF2FEF3FEF4FE75FEC8C
:100A2000C701B6010E94EC0D87FDF3CF20E030E056
:100A3000A901C701B6010E94EC0D10E000E087FF9C
:100A40000AC06DE28FEA92E00E94CC038C01F7FAB3
:100A5000F094F7F8F094C0E060E070E080E09FE38D
:100A60007C1641F020E030E040E251E40E94CE0FDD
:100A7000CF5FF6CFA70196010E94620F2B013C01C8
:100A80000E9447104B015C014AE00E9446047C0131
:100A9000E00EF11ECC23C1F1C501B4010E94F10D9D
:100AA0009B01AC01C301B2010E94610F4B015C01CB
:100AB0006EE28FEA92E00E94CC03E80EF91EC1506C
:100AC00018F120E030E040E251E4C501B4010E9499
:100AD000520E2B013C010E9447104B01B12CA12C5E
:100AE0004AE0C501B4010E944604E80EF91EC501A2
:100AF000B4010E94F10D9B01AC01C301B2010E943F
:100B0000610F4B015C01DBCFC701CF911F910F91AA
:100B1000FF90EF90DF90CF90BF90AF909F908F901D
:100B20007F906F905F904F900895CF93DF930E94D6
:100B3000B904EC0189E191E00E9439048C0F9D1FFA
:100B4000DF91CF9108950C943904CF93DF93ECE4B7
:100B5000F3E044815581608171818FEA92E00E94C7
:100B60009002EC0189E191E00E9439048C0F9D1FF5
:100B7000DF91CF910895CF93DF93EC0180914C03E7
:100B800090914D03009759F020914E0330914F03FF
:100B90002C173D0720F081E0DF91CF910895BE0131
:100BA0006F5F7F4F0E94EC11009789F090934D0387
:100BB00080934C03D0934F03C0934E032091500376
:100BC00030915103232B39F7FC011082E4CF80E0F0
:100BD000E3CF0F931F93CF93DF93009731F480E01F
:100BE000DF91CF911F910F91089561157105E9F083
:100BF0008C01C0915003D0915103C60FD71FCE0175
:100C00000E94BB05882359F320914C0330914D037A
:100C10008091500390915103B801820F931F0E945D
:100C2000B212D0935103C093500381E0D9CFFC019D
:100C300001900020E9F73197BF01681B790B0C94F4
:100C4000E90581E090E00E94BB0520914C033091C2
:100C50004D03811113C02115310519F0C9010E94FE
:100C6000631110924D0310924C0310925103109295
:100C7000500310924F0310924E03089581E090E0CC
:100C8000909351038093500368E271E0C9010C9482
:100C9000B2120F931F93CF93DF93CDB7DEB7649754
:100CA0000FB6F894DEBF0FBECDBF8E010F5F1F4F92
:100CB00022E044E00E94970BFC0101900020E9F73C
:100CC0003197BF01681B790B0E94E90564960FB646
:100CD000F894DEBF0FBECDBFDF91CF911F910F9172
:100CE00008951F920F920FB60F9211242F933F93E6
:100CF0008F939F93AF93BF938091AB029091AC027F
:100D0000A091AD02B091AE023091A60223E0230F74
:100D10002D3758F50196A11DB11D2093A602809391
:100D2000AB029093AC02A093AD02B093AE0280915F
:100D3000A7029091A802A091A902B091AA020196DF
:100D4000A11DB11D8093A7029093A802A093A902B0
:100D5000B093AA02BF91AF919F918F913F912F9134
:100D60000F900FBE0F901F90189526E8230F029644
:100D7000A11DB11DD2CF1F920F920FB60F92112459
:100D80002F933F934F935F936F937F938F939F9393
:100D9000AF93BF93EF93FF938FEA92E00E94AA0371
:100DA000FF91EF91BF91AF919F918F917F916F9143
:100DB0005F914F913F912F910F900FBE0F901F9019
:100DC00018951F920F920FB60F9211242F938F93A5
:100DD0009F93EF93FF93E091BF02F091C002808157
:100DE000E091C502F091C60282FD1BC09081809106
:100DF000C8028F5F8F732091C902821741F0E09182
:100E0000C802F0E0E155FD4F958F8093C802FF9135
:100E1000EF919F918F912F910F900FBE0F901F9088
:100E200018958081F4CF1092B2021092B10288EE30
:100E300093E0A0E0B0E08093B3029093B402A0935B
:100E4000B502B093B6028BE091E09093B00280932C
:100E5000AF0285EC90E09093BC028093BB0284ECDF
:100E600090E09093BE028093BD0280EC90E090935E
:100E7000C0028093BF0281EC90E09093C202809305
:100E8000C10282EC90E09093C4028093C30286EC8E
:100E900090E09093C6028093C5021092C80210920F
:100EA000C9021092CA021092CB0210924D03109206
:100EB0004C0310924F0310924E0310925103109264
:100EC000500390E080E00E94BB0520914C033091DC
:100ED0004D03811113C02115310519F0C9010E947C
:100EE000631110924D0310924C0310925103109213
:100EF000500310924F0310924E0308951092510325
:100F0000109250036BE171E0C9010C94B212789415
:100F100084B5826084BD84B5816084BD85B58260FE
:100F200085BD85B5816085BD80916E0081608093AF
:100F30006E00109281008091810082608093810018
:100F40008091810081608093810080918000816028
:100F5000809380008091B10084608093B100809183
:100F6000B00081608093B00080917A0084608093AB
:100F70007A0080917A00826080937A0080917A0072
:100F8000816080937A0080917A00806880937A00F3
:100F90001092C10080918100887F816080938100E0
:100FA000E091BF02F091C00282E08083E091BB0239
:100FB000F091BC021082E091BD02F091BE028FEC74
:100FC00080831092C702E091C302F091C40286E0D0
:100FD0008083E091C102F091C202808180618083B0
:100FE000E091C102F091C202808188608083E0912B
:100FF000C102F091C202808180688083E091C102C9
:10100000F091C20280818F7D808381E08093000116
:1010100061E089E00E94B00160E08EE00E94B001D2
:1010200020EE222E312C04E310E030E4C32E32E413
:10103000D32E3FE0E32EF12CC0E0D0E08AE291E035
:101040000E94AB048DE391E00E94AB048DE491E03B
:101050000E94AB0468EC70E080E090E00E945D02CA
:1010600084E690E09093A5028093A40268EC70E07F
:1010700080E090E00E945D0288E691E00E94A30576
:101080006091A4027091A502072E000C880B990BA9
:1010900097FF89C10E948A0483E691E00E94AB0415
:1010A00068EC70E080E090E00E945D028BE191E0EE
:1010B0000E94AB048BE191E00E94AB0485E791E0D4
:1010C0000E94AB048BE891E00E94AB0483E991E0BD
:1010D0000E94AB0480E090E0A0E8BFEB8093A00208
:1010E0009093A102A093A202B093A30230929F0218
:1010F00020929E0268EC70E080E090E00E945D0229
:1011000086EB91E00E94A3056091A0027091A1027C
:101110008091A2029091A30242E050E00E949505C6
:1011200068EC70E080E090E00E945D028BE191E06D
:101130000E94AB048BE191E00E94AB0489EC91E04A
:101140000E94AB048BE891E00E94AB0483E991E03C
:101150000E94AB0480E090E0A0E8BFE380939A0295
:1011600090939B02A0939C02B0939D0210939902CE
:101170000093980268EC70E080E090E00E945D02CD
:101180008DED91E00E94A30560919A0270919B02FF
:1011900080919C0290919D0242E050E00E94950552
:1011A00068EC70E080E090E00E945D028BE191E0ED
:1011B0000E94AB048BE191E00E94AB048EEE91E0C3
:1011C0000E94AB0482E092E00E94AB040E942E03D6
:1011D0000E94F30D20E030E04AE754E40E94520EF2
:1011E0000E9440104B0168EC70E080E090E00E94AB
:1011F0005D0281E192E00E94A305092C000CAA087F
:10120000BB08B7FED4C0C501B4010E948A0489E1BD
:1012100091E00E9439048FE192E00E94AB04C50185
:10122000B4010E945D028FE192E00E94AB048FE165
:1012300092E00E94AB0481E292E00E94A3058FE15C
:1012400092E00E94A30588E292E00E94AB048FE145
:1012500092E00E94AB04A0909E02B0909F02809109
:101260009802909199028A159B050CF050C120912B
:10127000A4023091A502032E000C440B550B97E0FD
:10128000220F331F441F551F9A95D1F7C701B6018E
:101290000E94A210209394023093950240939602EC
:1012A00050939702B0929302A092920260909202A1
:1012B0007090930280919802909199026816790635
:1012C0000CF47BC08EE00E944D014B015C01C30118
:1012D0000E94E101B301770C880B990B0E94F30D7A
:1012E00024E036E54EE350EC0E94520E20E030E060
:1012F0004FE753E40E94CE0F27E139ED4EEC5FE358
:101300000E94620F2B013C0142E00E94B9046091EF
:1013100094027091950280919602909197020E949A
:101320005D028FE192E00E94A30520E030E045E6F7
:1013300053E4C501B4010E94610F28EB3EEA4DE978
:1013400054E40E94520E20E030EC40E755E40E9445
:10135000CE0F26E636EF4BE154E40E94610F4B01BD
:101360005C0143E050E00E9495050E942106C30104
:10137000B2010E9449068FE292E00E941706C50161
:10138000B4010E94490681E392E00E9417060E9480
:10139000A5058091920290919302019790939302F8
:1013A0008093920283CF4AE00E94460475CE4AE0C1
:1013B000C501B4010E9446042ACF90939302809302
:1013C0009202609092027090930280919E0290919E
:1013D0009F02861597050CF46DC08EE00E944D01AA
:1013E0004B015C01C3010E94E101B301770C880B42
:1013F000990B0E94F30D24E036E54EE350EC0E9479
:10140000520E20E030E04FE753E40E94CE0F27E178
:1014100039ED4EEC5FE30E94620F2B013C0142E08C
:101420000E94B90460919402709195028091960295
:10143000909197020E945D028FE192E00E94A305C5
:1014400020E030E045E653E4C501B4010E94610F9D
:1014500028EB3EEA4DE954E40E94520E20E030ECC5
:1014600040E755E40E94CE0F26E636EF4BE154E408
:101470000E94610F4B015C0143E050E00E94950522
:101480000E942106C301B2010E9449068FE292E048
:101490000E941706C501B4010E94490681E392E04B
:1014A0000E9417060E94A5058091920290919302D6
:1014B000019683CF68EE73E080E090E00E945D02C9
:1014C00083E392E00E94AB0464EF71E080E090E07F
:1014D0000E945D0284E792E00E94AB048FEA92E0F2
:1014E0000E948A03892BD1F30E942E0360ED77E0DE
:1014F00080E090E00E945D02209709F49FCD0E9459
:101500009603882309F49ACD0E94000097CDA8166F
:10151000B90694F72091A4023091A502032E000C85
:10152000440B550B87E0220F331F441F551F8A952C
:10153000D1F7C701B6010E94A21020939402309304
:1015400095024093960250939702B0929302A09214
:101550009202609092027090930280919802909112
:101560009902861597050CF459C08EE00E944D0132
:101570004B015C01C3010E94E101B301770C880BB0
:10158000990B0E94F30D24E036E54EE350EC0E94E7
:10159000520E20E030E04FE753E40E94CE0F27E1E7
:1015A00039ED4EEC5FE30E94620F42E00E94B90405
:1015B00060919402709195028091960290919702A9
:1015C0000E945D028FE192E00E94A30520E030E0DE
:1015D00045E653E4C501B4010E94610F28EB3EEAE1
:1015E0004DE954E40E94520E20E030EC40E755E40F
:1015F0000E94CE0F26E636EF4BE154E40E94610FC5
:1016000043E050E00E9495058091920290919302F0
:10161000019690939302809392029BCF90939302B2
:1016200080939202609092027090930280919E0249
:1016300090919F02681679060CF455C08EE00E94C6
:101640004D014B015C01C3010E94E101B301770C24
:10165000880B990B0E94F30D24E036E54EE350EC25
:101660000E94520E20E030E04FE753E40E94CE0F7C
:1016700027E139ED4EEC5FE30E94620F42E00E94E9
:10168000B9046091940270919502809196029091B4
:1016900097020E945D028FE192E00E94A30520E084
:1016A00030E045E653E4C501B4010E94610F28EB28
:1016B0003EEA4DE954E40E94520E20E030EC40E74F
:1016C00055E40E94CE0F26E636EF4BE154E40E942B
:1016D000610F43E050E00E94950580919202909145
:1016E000930201979BCF68EE73E080E090E00E9448
:1016F0005D0283E392E00E94AB0464EF71E080E05E
:1017000090E00E945D0284E792E00E94AB048FEAC1
:1017100092E00E948A03892BD1F3E6CE80914C039C
:1017200090914D03009711F00C9463110895EF927E
:101730000F931F93CF93DF93E80134E047FD34E12B
:10174000042E000C550B57FF03C0519541955109CC
:10175000E32E022F242FAE010E94B50BCE01DF91A4
:10176000CF911F910F91EF900895A9E0B0E0EBEBBE
:10177000FBE00C94210F6A01F22EB02E102FFBE338
:10178000AF2EA01608F41BE31F5F012F27E0AE0168
:101790004F5F5F4F0E94140DBC018981982F997093
:1017A000913009F43FC09BE2E1FC04C09E2D917092
:1017B000E0FC3AC05E2D5071E82FE87083FF46C010
:1017C00084E0911101C083E0EF2DE81B8F1508F034
:1017D000E0E0D6018E2F20E2552351F1992329F024
:1017E000D6019C93C60101966C0196012D5F3F4F77
:1017F000E2FE24C08EE4D6018C9391E411969C9372
:10180000119712968C93D9018E2F90E281111BC0F3
:10181000E20FF32FF11D10828EEF9FEF2996ECE07F
:101820000C943D0F9DE2C6CF90E2C4CF2D93815022
:101830008111FCCFCE0ED11CE0E0D0CF8EE6D601D8
:101840008C9391E6DBCF9D938150E0CF482F44707D
:1018500082FF3DC084E0911101C083E08F1510F438
:10186000EF2DE81BD6018E2F20E2552309F1992395
:1018700029F0D6019C93C60101966C0196012D5F5B
:101880003F4FE2FE1BC089E4D6018C938EE4119693
:101890008C93119786E412968C93D9018E2F90E247
:1018A000882309F4B5CF9D938150FACF2D938150B1
:1018B0008111FCCFCE0ED11CE0E0D9CF89E6D60154
:1018C0008C938EE611968C93119786E6E4CF9B015C
:1018D00077FF02C030E020E0A1E0B0E0911102C04B
:1018E000B0E0A0E0F9013196AE0FBF1F8B2C912C18
:1018F000BB2009F461C05401EFEFAE1ABE0AAA0D75
:10190000BB1DFA161B0619F014F04F2D4A1B51117E
:1019100088C0E3FC59C07601A42FB0E2A1114FC0EA
:10192000C40ED11C992309F45BC040E0D601119686
:10193000F60190836D01552309F448C0012F060F6D
:101940009A81582F507184FF03C0913309F40150DC
:1019500010160CF047C0093008F008E0EEE2FE2E49
:101960005B01A01AB10885019194819491082F3FE1
:10197000320729F4D601FC92F60131966F01621705
:10198000730794F1021713077CF5DB01A21BB30B5D
:10199000AA24A394B12CAC0EBD1EAA0DBB1D11969A
:1019A0008C9121503109D601119628153905F4F092
:1019B000F60180836D01DBCFB12CA12CA0CFF70104
:1019C000B1937F01A150AACF9111B0CFD601942F2E
:1019D00050E302C05D9391509111FCCFC40ED11C15
:1019E00040E0ACCF01E0BACF80E3DBCF62177307F2
:1019F00031F4963388F4953311F4552369F0F601E8
:101A00008083FD01842F90E2811108C0A40FB11DD5
:101A10001C9290E080E002CF81E3F1CF919381505E
:101A2000F3CF911183CF8ACF283008F027E03327F6
:101A3000DA01990F311D87FD9160009661057105EE
:101A400039F432602E5F3D9330E32A95E1F7089533
:101A50009F3F30F080387105610509F03C5F3C5FC5
:101A60003D93913008F08068911DDF93CF931F93D1
:101A70000F93FF92EF92192F987F9695E92F9695E5
:101A80009695E90FFF27EE53FF4F99273327EE2452
:101A9000FF24A701E70105900894079428F4360F66
:101AA000E71EF81E491F511D660F771F881F991FDB
:101AB0000694A1F70590079428F4E70EF81E491F35
:101AC000561FC11D770F881F991F661F0694A1F727
:101AD0000590079428F4F80E491F561FC71FD11D03
:101AE000880F991F661F771F0694A1F7059007942A
:101AF00020F4490F561FC71FD81F990F661F771F65
:101B0000881F0694A9F784911095177041F0D69517
:101B1000C79557954795F794E7941A95C1F7E8E666
:101B2000F0E0689415901591359165919591059027
:101B30007FE27395E118F10A430B560BC90BD009EC
:101B4000C0F7E10CF11E431F561FC91FD01D7EF4C4
:101B5000703311F48A95E6CFE894015030F0080F05
:101B60000AF40027021708F4202F2395022F7A3356
:101B700028F079E37D932A95E9F710C07D932A95A3
:101B800089F6069497956795379517951794E118F8
:101B9000F10A430B560BC90BD00998F023957E919F
:101BA00073957A3308F070E37C932013B8F77E9135
:101BB00070617D9330F0839571E37D9370E32A9596
:101BC000E1F71124EF90FF900F911F91CF91DF91DA
:101BD000992787FD909508950E942E0E08F481E0C4
:101BE0000895E89409C097FB3EF490958095709510
:101BF00061957F4F8F4F9F4F9923A9F0F92F96E959
:101C0000BB279395F695879577956795B795F111CD
:101C1000F8CFFAF4BB0F11F460FF1BC06F5F7F4F6A
:101C20008F4F9F4F16C0882311F096E911C077237C
:101C300021F09EE8872F762F05C0662371F096E885
:101C4000862F70E060E02AF09A95660F771F881F54
:101C5000DAF7880F9695879597F90895990F0008F8
:101C6000550FAA0BE0E8FEEF16161706E807F9076E
:101C7000C0F012161306E407F50798F0621B730B09
:101C8000840B950B39F40A2661F0232B242B252B8A
:101C900021F408950A2609F4A140A6958FEF811D2D
:101CA000811D08950E94650E0C94D60E0E94C80EE8
:101CB00038F00E94CF0E20F0952311F00C94BF0E47
:101CC0000C94C50E11240C940A0F0E94E70E70F3B9
:101CD000959FC1F3950F50E0551F629FF001729FD1
:101CE000BB27F00DB11D639FAA27F00DB11DAA1FE0
:101CF000649F6627B00DA11D661F829F2227B00D2D
:101D0000A11D621F739FB00DA11D621F839FA00DB7
:101D1000611D221F749F3327A00D611D231F849F07
:101D2000600D211D822F762F6A2F11249F5750405E
:101D30009AF0F1F088234AF0EE0FFF1FBB1F661FD9
:101D4000771F881F91505040A9F79E3F510580F0A2
:101D50000C94BF0E0C940A0F5F3FE4F3983ED4F34B
:101D6000869577956795B795F795E7959F5FC1F746
:101D7000FE2B880F911D9695879597F9089597F9F1
:101D80009F6780E870E060E008959FEF80EC089521
:101D900000240A941616170618060906089500244A
:101DA0000A9412161306140605060895092E0394C4
:101DB000000C11F4882352F0BB0F40F4BF2B11F438
:101DC00060FF04C06F5F7F4F8F4F9F4F089557FD97
:101DD0009058440F551F59F05F3F71F04795880F99
:101DE00097FB991F61F09F3F79F087950895121630
:101DF00013061406551FF2CF4695F1DF08C01616DC
:101E000017061806991FF1CF86957105610508948C
:101E10000895E894BB2766277727CB0197F90895A3
:101E20000E94520FA59F900DB49F900DA49F800D0E
:101E3000911D112408952F923F924F925F926F92BD
:101E40007F928F929F92AF92BF92CF92DF92EF924A
:101E5000FF920F931F93CF93DF93CDB7DEB7CA1BCB
:101E6000DB0B0FB6F894DEBF0FBECDBF09942A88F6
:101E7000398848885F846E847D848C849B84AA849E
:101E8000B984C884DF80EE80FD800C811B81AA812B
:101E9000B981CE0FD11D0FB6F894DEBF0FBECDBFF6
:101EA000ED010895A29FB001B39FC001A39F700DE3
:101EB000811D1124911DB29F700D811D1124911D52
:101EC00008955058BB27AA270E94790F0C94D60E6C
:101ED0000E94C80E38F00E94CF0E20F039F49F3FC8
:101EE00019F426F40C94C50E0EF4E095E7FB0C945F
:101EF000BF0EE92F0E94E70E58F3BA176207730767
:101F00008407950720F079F4A6F50C94090F0EF4D8
:101F1000E0950B2EBA2FA02D0B01B90190010C01F9
:101F2000CA01A0011124FF27591B99F0593F50F411
:101F3000503E68F11A16F040A22F232F342F442769
:101F4000585FF3CF469537952795A795F040539561
:101F5000C9F77EF41F16BA0B620B730B840BBAF031
:101F60009150A1F0FF0FBB1F661F771F881FC2F79C
:101F70000EC0BA0F621F731F841F48F487957795B0
:101F80006795B795F7959E3F08F0B0CF9395880F6A
:101F900008F09927EE0F9795879508950E94E20F14
:101FA0000C94D60E0E94CF0E58F00E94C80E40F03E
:101FB00029F45F3F29F00C94BF0E51110C940A0FC5
:101FC0000C94C50E0E94E70E68F39923B1F35523D4
:101FD00091F3951B550BBB27AA276217730784073C
:101FE00038F09F5F5F4F220F331F441FAA1FA9F3D2
:101FF00035D00E2E3AF0E0E832D091505040E695C0
:10200000001CCAF72BD0FE2F29D0660F771F881F20
:10201000BB1F261737074807AB07B0E809F0BB0B13
:10202000802DBF01FF2793585F4F3AF09E3F510527
:1020300078F00C94BF0E0C940A0F5F3FE4F3983EC7
:10204000D4F3869577956795B795F7959F5FC9F710
:10205000880F911D9695879597F90895E1E0660F91
:10206000771F881FBB1F621773078407BA0720F00A
:10207000621B730B840BBA0BEE1F88F7E095089573
:102080000E9447106894B1110C940A0F08950E94A1
:10209000EF0E88F09F5798F0B92F9927B751B0F0FD
:1020A000E1F0660F771F881F991F1AF0BA95C9F7DC
:1020B00014C0B13091F00E94090FB1E008950C9462
:1020C000090F672F782F8827B85F39F0B93FCCF315
:1020D000869577956795B395D9F73EF49095809559
:1020E000709561957F4F8F4F9F4F08950E942E0EE0
:1020F00008F48FEF08950E942E0E880B990B089517
:10210000A1E21A2EAA1BBB1BFD010DC0AA1FBB1FFB
:10211000EE1FFF1FA217B307E407F50720F0A21B6D
:10212000B30BE40BF50B661F771F881F991F1A94DA
:1021300069F760957095809590959B01AC01BD0104
:10214000CF010895052E97FB1EF400940E94B9104C
:1021500057FD07D00E94801007FC03D04EF40C946A
:10216000B91050954095309521953F4F4F4F5F4F97
:10217000089590958095709561957F4F8F4F9F4FF3
:102180000895EE0FFF1F0590F491E02D09940F9331
:102190001F93CF93DF938230910510F482E090E09B
:1021A000E0915403F091550330E020E0B0E0A0E06E
:1021B000309799F42115310509F44AC0281B390BD1
:1021C00024303105D8F58A819B816115710589F12B
:1021D000FB0193838283FE0111C040815181028102
:1021E000138148175907E0F04817590799F41097D9
:1021F00061F012960C93129713961C933296CF01AE
:10220000DF91CF911F910F91089500935403109384
:102210005503F4CF2115310551F04217530738F01B
:10222000A901DB019A01BD01DF01F801C1CFEF0176
:10223000F9CF9093550380935403CDCFFE01E20F65
:10224000F31F819391932250310939832883D7CF8B
:102250002091520330915303232B41F42091030129
:1022600030910401309353032093520320910101D4
:10227000309102012115310541F42DB73EB740914F
:10228000050150910601241B350BE0915203F0919A
:102290005303E217F307A0F42E1B3F0B281739074F
:1022A00078F0AC014E5F5F4F2417350748F04E0FB2
:1022B0005F1F5093530340935203819391939FCF99
:1022C000F0E0E0E09CCFCF93DF930097E9F0FC01D2
:1022D000329713821282A0915403B0915503ED01FD
:1022E00030E020E01097A1F420813181820F931F0C
:1022F00020915203309153032817390709F061C028
:10230000F0935303E0935203DF91CF910895EA01D4
:10231000CE17DF07E8F54A815B819E014115510523
:10232000B1F7E901FB83EA8349915991C40FD51FA5
:10233000EC17FD0761F4808191810296840F951F4F
:10234000E90199838883828193819B838A83F0E06A
:10235000E0E012968D919C9113970097B9F52D911D
:102360003C911197CD010296820F931F2091520349
:10237000309153032817390739F6309751F51092E9
:10238000550310925403B0935303A0935203BCCF50
:10239000D383C28340815181840F951FC817D90709
:1023A00061F44E5F5F4F88819981480F591F5183B7
:1023B00040838A819B81938382832115310509F0B3
:1023C000B0CFF0935503E09354039ECFFD01DC01A1
:1023D000C0CF13821282D7CFB0E0A0E0E2EFF1E1EC
:1023E0000C941D0F8C01009751F4CB010E94C71073
:1023F0008C01C801CDB7DEB7E0E10C94390FFC01C8
:10240000E60FF71F9C0122503109E217F30708F489
:102410009DC0D901CD91DC911197C617D70798F0CF
:10242000C530D10530F3CE0104978617970708F31E
:10243000C61BD70B2297C193D1936D937C93CF0189
:102440000E946311D6CF5B01AC1ABD0A4C018C0E01
:102450009D1EA0915403B0915503512C412CF12C99
:10246000E12C109731F58091520390915303881518
:10247000990509F05CC04616570608F058C08091CF
:10248000010190910201009741F48DB79EB74091F0
:10249000050150910601841B950BE817F90708F018
:1024A00055C0F0935303E0935203F90171836083A5
:1024B000A0CF8D919C91119712966C9012971396C4
:1024C0007C901397A815B90559F56C0142E0C40E2C
:1024D000D11CCA14DB0420F1AC014A195B09DA01F2
:1024E0001296159780F06282738251834083D901DE
:1024F0006D937C93E114F10471F0D7011396FC9372
:10250000EE93129776CF22968C0F9D1FF90191833F
:102510008083F301EFCFF0935503E093540369CF29
:102520004816590608F42C017D01D3019ACFCB013E
:102530000E94C7107C01009749F0AE01B8010E94CB
:10254000A912C8010E946311870153CF10E000E077
:1025500050CFFB01DC0102C001900D924150504070
:10256000D8F70895FB01DC0101900D920020E1F7FE
:10257000089510E0CAEDD0E004C0FE010E94C11031
:0C2580002196CB3DD107C9F7F894FFCF9E
:10258C000100005603800000000000CC039002BD47
:10259C000219048A03CC02E0020D0A006E616E007F
:1025AC00696E66006F7666003C004379636C696304
:1025BC0020566F6C74616D6D6574727900454E5464
:1025CC004552205343414E205241544500414C4CFE
:1025DC004F5745442052414E47453A2031202D3229
:1025EC003530206D562F73005363616E2072617409
:1025FC00653A202000456E746572207374617274A4
:10260C0020706F74656E7469616C005761726E69CD
:10261C006E6700414C4C4F5745442052414E474544
:10262C003A202D312E33362061202B312E3431209F
:10263C00766F6C747300537461727420506F746590
:10264C006E7469616C3A202000456E746572206569
:10265C006E6420706F74656E7469616C00456E6495
:10266C0020506F74656E7469616C3A2020002045AF
:10267C006E746572207374616E6462792074696D16
:10268C0065004D6178203230207365636F6E647322
:10269C00007374616E6462792074696D653A2020F0
:1026AC000045202856292000492028754129003B47
:1026BC00003E00506C656173652C20636F7079204F
:1026CC006461746120616E6420616674657220704F
:1026DC007265737320434C454152204F55545055ED
:1026EC005420696E2073657269616C206D6F6E6920
:1026FC00746F720020456E746572203520746F20E3
:10270C0072657475726E206D61696E206D656E7583
:02271C000000BB
:00000001FF
